:020000040800F2
:10000000780600208901000891010008930100088A
:100010009501000897010008990100080000000000
:100020000000000000000000000000009B0100082C
:100030009D010008000000009F010008A1010008C8
:10004000A3010008A3010008A3010008A301000800
:10005000A3010008A3010008A3010008A3010008F0
:10006000A3010008A3010008A3010008A3010008E0
:10007000A3010008A3010008A3010008A3010008D0
:10008000A3010008A3010008A3010008A3010008C0
:10009000A3010008A3010008A3010008A3010008B0
:1000A000A3010008A3010008A3010008A3010008A0
:1000B000A3010008A3010008A3010008A301000890
:1000C000A3010008A3010008A3010008A301000880
:1000D000A3010008A3010008A3010008A301000870
:1000E000A3010008A3010008A301000800F002F822
:1000F00000F03AF80AA090E8000C82448344AAF188
:100100000107DA4501D100F02FF8AFF2090EBAE885
:100110000F0013F0010F18BFFB1A43F0010318473B
:10012000CC070000EC070000103A24BF78C878C163
:10013000FAD8520724BF30C830C144BF04680C60ED
:10014000704700000023002400250026103A28BF35
:1001500078C1FBD8520728BF30C148BF0B60704739
:100160001FB51FBD10B510BD00F042F81146FFF7D6
:10017000F7FF00F055FB00F060F803B4FFF7F2FF63
:1001800003BC00F02FF800000948804709480047E9
:10019000FEE7FEE7FEE7FEE7FEE7FEE7FEE7FEE737
:1001A000FEE7FEE704480549054A064B7047000094
:1001B0000D040008ED0000087800002078060020FB
:1001C000780200207802002070477047704710B511
:1001D000002000F03BF8FFF7C5FFBDE8104001200C
:1001E000AFF3008001491820ABBEFEE726000200F5
:1001F000754600F033F8AE4605006946534620F0D8
:100200000700854618B020B5FFF7CCFFBDE82040B9
:100210004FF000064FF000074FF000084FF0000BC2
:10022000AC46ACE8C009ACE8C009ACE8C009ACE831
:10023000C00921F007018D46704710B50446AFF3A1
:1002400000802046BDE81040FFF797BF10B500F0D2
:100250000FF8BDE8104000F006B8000000487047F5
:10026000100000207047002801D0FFF7BBBF704787
:1002700010B5002102A000F013F8012010BD00000D
:10028000534947414252543A2041626E6F726D6148
:100290006C207465726D696E6174696F6E00000028
:1002A00070B505460C460A2000E06D1C00F011F800
:1002B00035B128780028F8D102E0641C00F009F874
:1002C00014B120780028F8D1BDE870400A20AFF3BF
:1002D000008008B569468DF800000320ABBE08BD5C
:1002E00080B500F001F880BD84B00020039002903A
:1002F00041F20001C4F20201086840F48030086055
:10030000FFE741F20000C4F20200006800F4003090
:100310000290039801300390FFE7029900200190BA
:1003200039B9FFE70398B0F5A06018BF012001902C
:10033000FFE70198C0070028E3D1FFE741F2000082
:10034000C4F2020000688003002803D5FFE7012003
:10035000029002E000200290FFE70298012851D1AC
:10036000FFE742F20001C4F20201086840F0100009
:100370000860086820F007000860086840F0020084
:10038000086041F20401C4F20201009108680860AB
:1003900008680860086840F480600860086820F415
:1003A0007C100860086840F4E810086041F2000121
:1003B000C4F20201086840F080700860FFE741F273
:1003C0000000C4F2020000688001002801D4FFE7A9
:1003D000F5E741F20401C4F20201086820F00300CD
:1003E0000860086840F002000860FFE741F204007E
:1003F000C4F20200006800F00C00082801D0FFE7FA
:10040000F4E700E0FFE704B07047000080B541F278
:100410000002C4F20202106840F00100106041F2D4
:100420000401C4F2020108680023CFF6FF0318405C
:10043000086010684FF6FF73CFF6F663184010603F
:10044000106820F480201060086820F4FE00086026
:1004500041F20801C4F202014FF41F000860FFF7E7
:100460003FFF4EF60851CEF200014FF000600860E9
:1004700080BD000080B582B084460498CDF804C0E9
:100480008DF803108DF802208DF801308DF80000F2
:1004900001989DF8031081709DF80210C1709DF8BD
:1004A000011001719DF8001041710021017041702F
:1004B00002B080BD80B584B0039003980190002104
:1004C0008DF80B10C079022805DCFFE701988079D0
:1004D000102804DBFFE701208DF80B0005E00198F0
:1004E0008168C06800F042F9FFE79DF80B0004B096
:1004F00080BD000080B584B0039003980190002176
:100500008DF80B10C079022805DCFFE7019880798F
:10051000102804DBFFE701208DF80B0006E00198AE
:100520008168C068012200F0DBF8FFE79DF80B004E
:1005300004B080BD80B584B0039003980190002181
:100540008DF80B10C079022805DCFFE7019880794F
:10055000102804DBFFE701208DF80B0006E001986E
:100560008168C068002200F0BBF8FFE79DF80B002F
:1005700004B080BD80B584B00390029103980190CF
:10058000029B9978DA785B7900F018F9019840F6C7
:10059000C401C0F6000108310160029981608168E0
:1005A000C06800F041F8019804B080BD82B08DF8B9
:1005B0000700FF208DF806009DF807000146009116
:1005C00040B1FFE7009801280ED0FFE7009802280D
:1005D00014D01DE040F20000C2F2000001688869FA
:1005E00040F0040088611AE040F20000C2F200000E
:1005F0000168886940F00800886110E040F200005E
:10060000C2F200000168886940F01000886106E0CD
:1006100040F27001C2F2000101200870FFE79DF86E
:10062000060002B07047000084B003900291039866
:10063000009000208DF807000298C07807281CDC85
:10064000FFE702988178C07882000F2000FA02F359
:1006500040F20400C2F2000050F8212011689943D2
:100660001160029A9178D37812799B009A4050F8E1
:1006700021100868104308602DE00298C0780F2808
:1006800022DCFFE702988178C0786FF01F0303EB4C
:1006900080020F2000FA02FC40F20400C2F20000C7
:1006A00050F82120516821EA0C015160029A91789A
:1006B00092F803C0127903EB8C039A4050F8211092
:1006C00048681043486005E00099012008708DF8E3
:1006D0000700FFE7FFE79DF8070004B07047000040
:1006E00084B0039002918DF80720039800900020B9
:1006F0008DF806000298C0780F282CDCFFE79DF8E3
:100700000700012811D1FFE79DF80700029A9178B0
:10071000D27800FA02F240F20400C2F2000050F86F
:100720002110C8681043C86014E09DF8070080B924
:10073000FFE702988178C278012000FA02F240F2C5
:100740000400C2F2000050F82110C8689043C8604D
:10075000FFE7FFE705E00099012008708DF806002B
:10076000FFE79DF8060004B07047000084B00390D6
:1007700002910398009000208DF807000298C0783D
:100780000F2810DCFFE702988178C278012000FA78
:1007900002F240F20400C2F2000050F82110C868D2
:1007A0005040C86005E00099012008708DF80700EE
:1007B000FFE79DF8070004B07047000082B0019089
:1007C0008DF803108DF802208DF80130019840F665
:1007D000D801C0F60001083101609DF80110417197
:1007E0009DF8021081719DF80310C1710021017103
:1007F00002B0704701A000F011F800BF507572659B
:10080000207669727475616C2066756E6374696FA9
:100810006E2063616C6C656421000000FFF7D7FCFB
:1008200080B59EB0002006901D9002200790FFF733
:10083000BDFE0698FFF7BAFE01200590FFF7B6FE51
:10084000059A0699079B684602601BA80890FFF767
:1008500011FE05980699079B6A46106019A8099031
:100860001A46FFF707FE05980699079B6A4610602F
:1008700017A80A900322FFF7FDFD089913A8FFF7B8
:1008800079FE09990FA8FFF775FE0A990BA8FFF7E3
:1008900071FEFFE7FFE713A80290FFF72BFE0FA8FA
:1008A0000390FFF727FE0BA80490FFF723FE0298A2
:1008B000FFF700FE0398FFF7FDFD0498FFF7FAFD30
:1008C000E8E700000000000000000000F504000858
:1008D00035050008B5040008000000000000000015
:1008E000F5070008F5070008F507000810090008DB
:1008F0000000002010000000280100082009000866
:1009000010000020680600004401000800000000FC
:100910000010024000080140000C0140001001409E
:04000005080000ED02
:00000001FF
